:10000000CEE0008620A700088CE7D026F8CEF0408E
:100010006F016F008614A701CEE780DF0CDE12BDF2
:10002000FD54BDFD0B812D2603092010812F270BC8
:1000300081202630BDFCDB9611A700088D20DF1241
:100040008D0F8D07A600BDFD1620D48620BDFD5660
:1000500039DF149614BDFD169615BDFD1639860DB3
:10006000BDFD5639815326033020D1810726026E0B
:1000700000814F26068D64DE1020C1810F26037E8D
:10008000FD8A814C270B81432740863FBDFD5620CA
:10009000AB8D48961184F09715961097148D3C8D72
:1000A000BDDE148DB98DAA8DA2C6108D9EA6008DC1
:1000B000659C10270E085A26F28640B5F04127E3CA
:1000C000B6F0408D99DE127EFC3C8D0F9611CE006D
:1000D00014A700088CE00026F820EC7F00107F00B9
:1000E000118D718D26803025218BE9251D8B062AE7
:1000F000048B0725158B0A37C60478001179001088
:00000001FF