:100000005A26F7339B11971120D73981612D06812C
:100010007A2E0280203936444444448D013236849D
:100020000F8B30813A2D028B078D2B3239DF0EDE9C
:100030000CA6008A80A7008640B5F04127FBA600E9
:10004000847FA700B6F04081612D06817A2202806C
:1000500020DE0E398DD736DF0EDE0C810D270E81A6
:100060000A2723A70008DF0C8CE7D02619CEE00072
:10007000A650A700088CE78026F6DF0C8620A70094
:10008000088CE7D026F8DE0E3239CE0001BDFDE542
:10009000DE4FBDFDE5DE1FDF1BDE1DDF18BDFE16DA
:1000A000BDFEE0DE1809DF1826F3D61E4F54469B2E
:1000B00020D91FD70E970F4F5FDE1FEB01A9000855
:1000C000089C0E26F64C26075C2604DE216E008670
:1000D0003420023131368645BDFD5632BDFD56BD58
:1000E000FC5E7EFC1D8D07CE001DDF1B2028DF0E71
:1000F0007F0016960FD60E8034C20025057C0016B0
:00000001FF