:020000020000FC
:1000000012C0C8C159C25CC2FEC15CC25DC25EC240
:100010005FC260C261C262C251C262C263C264C2D4
:1000200065C266C267C2FF24BB274FED4DBF40E7E4
:1000300042BB48E041BB41E0859B44274BBB43E0CA
:10004000849B41E04ABB442748BB4FE747BB44E29F
:1000500043B949E149B9442742B948E14AB94FE7B0
:100060005ED241BF4CE04EBD40E058E44BBD5ABDAE
:1000700041E045BF40E44BBF849B02C0859B81D0DB
:10008000859BD89A46E0342E02E143E0642EF89432
:100090004FED4DBF7894BB2408D200000000F894C7
:1000A000B7D19927552478940DD04A3AF9F0F894AD
:1000B00012604FEF442E92988A9A789403D04A3F68
:1000C00099F3F5CF8824992448E0A42E839421F451
:1000D000939411F4AA9439F05F9925D010FFF6CFCC
:1000E000422D1E7F089594D14EEF08954FEFB42E08
:1000F000DCD1F8944FED4DBF8BD1992755247894DE
:1001000063D002D096D0FDCF5F990DD010FFFCCF09
:10011000422D1E7F089578940000F8945D9BFBCFDC
:100120004CB9789408955F9B20C04CB1849B18C053
:10013000401731F40395053124F018D002E115C0C1
:1001400002E1461569F4562D533011F45CE00AC003
:100150005C3011F452E106C014D053E0652E05C0A6
:1001600053E0652E652E4FD0D6DF0895D89854E021
:100170006AEF000000006A95E1F75A95C9F7D89A2E
:100180000895D99A50E86AEF000000006A95E1F7F7
:100190005A95C9F7D998089560E3422D469546953A
:1001A000469546954A3014F067E0460F60E3460FE7
:1001B000B2DF422D5FE045234A3014F067E0460F7E
:1001C00060E3460FA8DF0895F89412604DEE442EC8
:1001D00092988A9A789411FDFECF74DF4A3F21F0FD
:1001E0004E3F09F473C174C1F8941260432D442E3C
:1001F00092988A9A789466DF4A3F21F04E3F09F43C
:1002000069C16AC108954F93742F7F77F89468B3DA
:100210006078762B78BB7894939A44E600000000CF
:100220004A95E1F7849902C0C99BFECF93984F91FC
:1002300008954A3A09F45ACF403E11F490689BC0A1
:1002400096FD76C0413741F4552D97FF02C05160AD
:1002500001C05260552E45C0413131F497FF02C0B4
:10026000926088C0916086C0443131F497FF02C02B
:10027000906180C090627EC0483561F432FC05C058
:10028000432D4460342EA0DF75C0432D4B7F342EA8
:100290009BDF70C0423121F0493521F498606AC07B
:1002A000946068C0403F11F4906465C097FF19C026
:1002B000869917C0453711F444E40CC0423711F455
:1002C00043E408C04B3611F442E404C0443749F417
:1002D00045E105C04F934BE196DFE7D04F9193DFA7
:1002E00049C0F6E0E6E794FD19C095FD17C0F6E0B9
:1002F000ECEA97FD13C0F6E0EEE332FE07C055913D
:1003000065915F1519F04517D1F70EC0F5E0E4EBE4
:1003100092FD04C093FD02C0F5E0EAE255916591BB
:100320005F1521F04517D1F7462F00DF9F7723C0D7
:100330009F7B413741F4552D97FF02C05E7F01C07E
:100340005D7F552E17C0413131F497FF02C09D7F6C
:1003500011C09E7F0FC0443131F497FF02C09F7ED1
:1003600009C09F7D07C0423121F0493519F4977FBC
:1003700001C09B7F9F77492F437059F0492F4073ED
:1003800041F0452D437029F0F1DE492F4C7C942F2C
:10039000552408953FB73F9311FD46C0829B0EC080
:1003A00039B736FF32C00A9481F5222E1160332707
:1003B00039BF3BE0032E3FEF132E27C0302D3330E3
:1003C000A4F03B3031F02695B79B1FC02068122661
:1003D0001CC003D0B79918C018C033273DBD3CBD21
:1003E0003FEF38BF30E439BF0895323049F4312D42
:1003F000B79903C037FD08C008C037FF05C005C066
:10040000B79B02C002C078C003D03F913FBF189590
:10041000929A8A98C79ABF9811273BE0032E30E43E
:100420003ABF332739BF08958A9903C0BF9911C0D5
:100430002CC0242D33D032D031D0CFDF3AE0032E80
:100440003FEF132EC798BF9A929A8A9830E43ABF2A
:10045000DCCF82991AC00A9419F4C79ABF98D5CFF5
:10046000302D32303CF4312D10FE02C0C79A0BC043
:10047000C798CBCF20FF06C0312DA1E03A27132E1D
:10048000C79A01C0C7982695C0CF302D303009F4E7
:100490008299BBCFB799B8CF1D7F89CF4F9346E2E2
:1004A00000004A95E9F74F9108954F9348EF0000F7
:1004B0004A95E9F74F91089550E320C051E31EC0DB
:1004C00052E31CC053E31AC054E318C055E316C0EE
:1004D00056E314C057E312C058E310C059E30EC0EE
:1004E00051E40CC052E40AC053E408C054E406C00E
:1004F00055E404C056E402C054E500C0BB2029F016
:100500005F9342E513DE4F9111DE5D9BFECFBFCDC1
:10051000E199FECF4EBB5DBBE29AE19A0895E19965
:10052000FECF4EBBE09A4DB308950D090E601571D4
:1005300016311A7A1B731C611D771E3221632278D3
:10054000236424652534263329202A762B662C74CF
:100550002D722E35316E3262336834673579363616
:10056000392C3A6D3B6A3C753D373E38412C426B25
:100570004369446F45304639492E4A2F4B6C4C3BFA
:100580004D704E2D5227545B553D5A0D5B5D5D27D6
:10059000613C660869316B346C377030712E723291
:1005A000733574367538761B792B7A337B2D7C2A1C
:1005B0007D3900000D090E7E155116211A5A1B5364
:1005C0001C411D571E402143225823442445252405
:1005D000262329202A562B462C542D522E25314EC7
:1005E0003242334834473559365E394C3A4D3B4AEE
:1005F0003C553D263E2A413C424B4349444F452908
:100600004628493E4A3F4B4C4C3A4D504E5F522291
:10061000547B552B5A0D5B7D5D7C613E66086931CC
:100620006B346C377030712C7232733574367538A8
:10063000761B792B7A337B2D7C2A7D39000015516E
:100640001A5A1B531C411D57214322582344244549
:100650002A562B462C542D52314E324233483447C1
:100660003559394C3A4D3B4A3C55424B4349444F2E
:100670004B4C4D500000410132022103230424055C
:100680002B063407330843093B0A420B4B0C3A0D47
:10069000310E440F4D1015112D121B132C143C1547
:1006A0002A161D17221835191A1A00004A2F5A0D3A
:0206B000000048
:00000001FF
